{
  "contractName": "Flight",
  "abi": [
    {
      "constant": true,
      "inputs": [],
      "name": "scheduledDepartTime",
      "outputs": [
        {
          "name": "",
          "type": "uint256"
        }
      ],
      "payable": false,
      "stateMutability": "view",
      "type": "function"
    },
    {
      "constant": true,
      "inputs": [],
      "name": "airline_owner",
      "outputs": [
        {
          "name": "",
          "type": "address"
        }
      ],
      "payable": false,
      "stateMutability": "view",
      "type": "function"
    },
    {
      "constant": true,
      "inputs": [],
      "name": "passengerCount",
      "outputs": [
        {
          "name": "",
          "type": "uint256"
        }
      ],
      "payable": false,
      "stateMutability": "view",
      "type": "function"
    },
    {
      "constant": false,
      "inputs": [],
      "name": "bookTicket",
      "outputs": [
        {
          "name": "success",
          "type": "bool"
        }
      ],
      "payable": true,
      "stateMutability": "payable",
      "type": "function"
    },
    {
      "constant": true,
      "inputs": [],
      "name": "capacity",
      "outputs": [
        {
          "name": "",
          "type": "uint256"
        }
      ],
      "payable": false,
      "stateMutability": "view",
      "type": "function"
    },
    {
      "constant": true,
      "inputs": [
        {
          "name": "",
          "type": "uint256"
        }
      ],
      "name": "passengers",
      "outputs": [
        {
          "name": "",
          "type": "address"
        }
      ],
      "payable": false,
      "stateMutability": "view",
      "type": "function"
    },
    {
      "constant": false,
      "inputs": [
        {
          "name": "recipient",
          "type": "address"
        },
        {
          "name": "amount",
          "type": "uint256"
        }
      ],
      "name": "refundTicket",
      "outputs": [],
      "payable": false,
      "stateMutability": "nonpayable",
      "type": "function"
    },
    {
      "constant": false,
      "inputs": [
        {
          "name": "newtime",
          "type": "uint256"
        }
      ],
      "name": "departure",
      "outputs": [],
      "payable": false,
      "stateMutability": "nonpayable",
      "type": "function"
    },
    {
      "constant": false,
      "inputs": [],
      "name": "destroy",
      "outputs": [],
      "payable": false,
      "stateMutability": "nonpayable",
      "type": "function"
    },
    {
      "constant": true,
      "inputs": [],
      "name": "actualDepartTime",
      "outputs": [
        {
          "name": "",
          "type": "uint256"
        }
      ],
      "payable": false,
      "stateMutability": "view",
      "type": "function"
    },
    {
      "constant": true,
      "inputs": [
        {
          "name": "",
          "type": "address"
        }
      ],
      "name": "flightBookings",
      "outputs": [
        {
          "name": "",
          "type": "uint256"
        }
      ],
      "payable": false,
      "stateMutability": "view",
      "type": "function"
    },
    {
      "inputs": [],
      "payable": false,
      "stateMutability": "nonpayable",
      "type": "constructor"
    }
  ],
  "bytecode": "0x6060604052341561000f57600080fd5b336000806101000a81548173ffffffffffffffffffffffffffffffffffffffff021916908373ffffffffffffffffffffffffffffffffffffffff16021790555060646002819055506000600681905550610640600481905560038190555061087d8061007c6000396000f3006060604052600436106100af576000357c0100000000000000000000000000000000000000000000000000000000900463ffffffff1680630b5b3748146100b45780631f0764b8146100dd578063349ef932146101325780634d3f6f951461015b5780635cfc1a511461017d5780636f68f544146101a6578063705099b914610209578063715c49a71461024b57806383197ef01461026e578063f123f80714610283578063fe48c479146102ac575b600080fd5b34156100bf57600080fd5b6100c76102f9565b6040518082815260200191505060405180910390f35b34156100e857600080fd5b6100f06102ff565b604051808273ffffffffffffffffffffffffffffffffffffffff1673ffffffffffffffffffffffffffffffffffffffff16815260200191505060405180910390f35b341561013d57600080fd5b610145610324565b6040518082815260200191505060405180910390f35b61016361032a565b604051808215151515815260200191505060405180910390f35b341561018857600080fd5b610190610403565b6040518082815260200191505060405180910390f35b34156101b157600080fd5b6101c76004808035906020019091905050610409565b604051808273ffffffffffffffffffffffffffffffffffffffff1673ffffffffffffffffffffffffffffffffffffffff16815260200191505060405180910390f35b341561021457600080fd5b610249600480803573ffffffffffffffffffffffffffffffffffffffff16906020019091908035906020019091905050610448565b005b341561025657600080fd5b61026c60048080359060200190919050506105af565b005b341561027957600080fd5b610281610615565b005b341561028e57600080fd5b6102966107e2565b6040518082815260200191505060405180910390f35b34156102b757600080fd5b6102e3600480803573ffffffffffffffffffffffffffffffffffffffff169060200190919050506107e8565b6040518082815260200191505060405180910390f35b60035481565b6000809054906101000a900473ffffffffffffffffffffffffffffffffffffffff1681565b60065481565b60006002546006541015156103425760009050610400565b34600160003373ffffffffffffffffffffffffffffffffffffffff1673ffffffffffffffffffffffffffffffffffffffff168152602001908152602001600020819055506005805480600101828161039a9190610800565b9160005260206000209001600033909190916101000a81548173ffffffffffffffffffffffffffffffffffffffff021916908373ffffffffffffffffffffffffffffffffffffffff16021790555050600660008154809291906001019190505550600190505b90565b60025481565b60058181548110151561041857fe5b90600052602060002090016000915054906101000a900473ffffffffffffffffffffffffffffffffffffffff1681565b60008060009054906101000a900473ffffffffffffffffffffffffffffffffffffffff1673ffffffffffffffffffffffffffffffffffffffff163373ffffffffffffffffffffffffffffffffffffffff161415156104a5576105aa565b81600160008573ffffffffffffffffffffffffffffffffffffffff1673ffffffffffffffffffffffffffffffffffffffff1681526020019081526020016000205414156105a957309050818173ffffffffffffffffffffffffffffffffffffffff16311015156105a8578273ffffffffffffffffffffffffffffffffffffffff166108fc839081150290604051600060405180830381858888f19350505050151561054f57600080fd5b6000600160008573ffffffffffffffffffffffffffffffffffffffff1673ffffffffffffffffffffffffffffffffffffffff16815260200190815260200160002081905550600660008154809291906001900391905055505b5b5b505050565b6000809054906101000a900473ffffffffffffffffffffffffffffffffffffffff1673ffffffffffffffffffffffffffffffffffffffff163373ffffffffffffffffffffffffffffffffffffffff1614151561060a57610612565b806004819055505b50565b60008060008060009054906101000a900473ffffffffffffffffffffffffffffffffffffffff1673ffffffffffffffffffffffffffffffffffffffff163373ffffffffffffffffffffffffffffffffffffffff1614156107dd5760045460035410156107a357600092505b6005805490508310156107a257600160006005858154811015156106a057fe5b906000526020600020900160009054906101000a900473ffffffffffffffffffffffffffffffffffffffff1673ffffffffffffffffffffffffffffffffffffffff1673ffffffffffffffffffffffffffffffffffffffff16815260200190815260200160002054915060646032830281151561071857fe5b04905060058381548110151561072a57fe5b906000526020600020900160009054906101000a900473ffffffffffffffffffffffffffffffffffffffff1673ffffffffffffffffffffffffffffffffffffffff166108fc829081150290604051600060405180830381858888f19350505050151561079557600080fd5b8280600101935050610680565b5b6000809054906101000a900473ffffffffffffffffffffffffffffffffffffffff1673ffffffffffffffffffffffffffffffffffffffff16ff5b505050565b60045481565b60016020528060005260406000206000915090505481565b81548183558181151161082757818360005260206000209182019101610826919061082c565b5b505050565b61084e91905b8082111561084a576000816000905550600101610832565b5090565b905600a165627a7a7230582015c4099cb50357d7b68f6565219d7ecc383cf4405532a7ca9c56f51f7f33976c0029",
  "source": "pragma solidity ^0.4.4;\n\ncontract Flight {\n address public airline_owner;\n mapping (address => uint) public flightBookings;\n uint public capacity;\n uint public scheduledDepartTime;\n uint public actualDepartTime;\n \n address[] public passengers;\n uint public passengerCount;\n\n // Constructor\n function Flight() {\n   airline_owner = msg.sender;\n   capacity = 100;\n   passengerCount = 0;\n   scheduledDepartTime=actualDepartTime=1600;\n }\n\n function departure(uint newtime) public {\n   if (msg.sender != airline_owner) { return; }\n   actualDepartTime = newtime;\n }\n \n function bookTicket() public payable returns (bool success) {\n   if (passengerCount >= capacity) { return false; }\n   flightBookings[msg.sender] = msg.value;\n   passengers.push(msg.sender);\n   passengerCount++;\n   return true;\n }\n \n function refundTicket(address recipient, uint amount) public {\n   if (msg.sender != airline_owner) { return; }\n   if (flightBookings[recipient] == amount) {\n     address myAddress = this;\n     if (myAddress.balance >= amount) {\n       if(!recipient.send(amount)) throw;\n       flightBookings[recipient] = 0;\n       passengerCount--;\n     }\n   }\n }\n \n function destroy() { // so funds not locked in contract forever\n   if (msg.sender == airline_owner) {\n   \n       if(scheduledDepartTime<actualDepartTime){\n       for (uint i=0; i<passengers.length; i++) {\n           uint amount=flightBookings[passengers[i]];\n           uint refund=(amount*50)/100;\n           if(!passengers[i].send(refund)) throw;\n       }\n       }\n   \n       suicide(airline_owner); // send funds to airline_owner\n   }//end of owner check\n }//end of destroy\n \n}//end of Flight\n",
  "sourcePath": "/home/shanker/Desktop/Dapp/Flight_Dapp/contracts/Flight.sol",
  "compiler": {
    "name": "solc",
    "version": "0.4.18+commit.9cf6e910.Emscripten.clang"
  },
  "schemaVersion": "1.0.1",
  "updatedAt": "2018-01-11T07:03:31.490Z"
}